:020000040800F2
:100000000807002089010008170600080F060008ED
:1000100013060008430200086909000800000000F8
:10002000000000000000000000000000C7070008FA
:10003000AD040008000000001906000805090008CA
:10004000A3010008A3010008A3010008A301000800
:10005000A3010008A3010008A3010008A3010008F0
:10006000A3010008A3010008A3010008A3010008E0
:10007000A3010008A3010008A3010008A3010008D0
:10008000A3010008A3010008A3010008A3010008C0
:10009000A3010008A3010008A3010008A3010008B0
:1000A000A3010008A3010008A3010008A3010008A0
:1000B000A3010008A3010008A3010008A301000890
:1000C000A3010008A3010008A3010008A301000880
:1000D000A3010008A3010008A3010008A301000870
:1000E000A3010008A3010008A301000800F002F822
:1000F00000F03AF80AA090E8000C82448344AAF188
:100100000107DA4501D100F02FF8AFF2090EBAE885
:100110000F0013F0010F18BFFB1A43F0010318473B
:10012000DC090000FC090000103A24BF78C878C13F
:10013000FAD8520724BF30C830C144BF04680C60ED
:10014000704700000023002400250026103A28BF35
:1001500078C1FBD8520728BF30C148BF0B60704739
:100160001FB51FBD10B510BD00F031F81146FFF7E7
:10017000F7FF00F075FC00F04FF803B4FFF7F2FF53
:1001800003BC00F057F800000948804709480047C1
:10019000FEE7FEE7FEE7FEE7FEE7FEE7FEE7FEE737
:1001A000FEE7FEE704480549054A064B7047000094
:1001B00009090008ED0000080801002008070020D8
:1001C00008030020080300207047704770477546F9
:1001D00000F02CF8AE4605006946534620F00700B3
:1001E000854618B020B5FFF7DDFFBDE820404FF091
:1001F00000064FF000074FF000084FF0000B21F011
:100200000701AC46ACE8C009ACE8C009ACE8C009DD
:10021000ACE8C0098D46704710B50446AFF30080C6
:100220002046BDE81040FFF7A8BF00000048704717
:10023000A400002001491820ABBEFEE72600020002
:10024000704700BFFEE708B50146C1F1FF0155291F
:1002500016DA01EB4100C0F1FF00C0B28DF80000DA
:1002600000208DF8010001EB4100C0B28DF80200C2
:10027000BDF8002010469DF8022040EA024008BD6B
:10028000AA2919DAA1F15500C1B200208DF80000A9
:1002900001EB4100C0B28DF8010001EB4100C0F15B
:1002A000FF00C0B28DF80200BDF8002010469DF896
:1002B000022040EA0240E2E7A1F1AA00C1B201EB4C
:1002C0004100C0B28DF8000001EB4100C0F1FF0019
:1002D000C0B28DF8010000208DF80200BDF80020AA
:1002E00010469DF8022040EA0240C8E700F0805125
:1002F00011B10349086001E00249486070470000FD
:10030000040402400000024021B1026842F00102F0
:10031000026004E002684FF6FE731A400260704704
:1003200001684FF6FE7211400160002101604160DA
:100330008160C1604B49884208D14A4908394968FF
:1003400041F00F01474A083A51608AE045491431AB
:10035000884208D143490839496841F0F001414ACF
:10036000083A51607DE03F492831884208D13D4933
:100370000839496841F470613A4A083A516070E0BE
:1003800038493C31884208D136490839496841F436
:100390007041344A083A516063E032495031884232
:1003A00008D130490839496841F470212D4A083A8A
:1003B000516056E02B496431884208D129490839F7
:1003C000496841F47001274A083A516049E02549DB
:1003D0007831884208D123490839496841F0706171
:1003E000204A083A51603CE01F49884206D1011F6B
:1003F000096841F00F01021F116032E01A491431FF
:10040000884208D11849091F096841F0F001164ACD
:10041000121F116025E014492831884208D1124981
:10042000091F096841F470610F4A121F116018E03A
:100430000D493C31884208D10B49091F096841F434
:100440007041094A121F11600BE007495031884280
:1004500007D10549091F096841F47021024A121F9A
:1004600011607047080002400804024010B50022E5
:10047000026847F6F0739A430C6A8B6823430C6951
:1004800023434C6923438C692343CC6923434C6A3F
:1004900023438C6A23431A430260CB6843600B6892
:1004A00083604B68C36010BD4160704770470000B7
:1004B00031B5104800684FF47A71B0FBF1F5284669
:1004C00000F0F6F9002408E000BF4FF0E0200069DA
:1004D00000F480300028F8D0641C00988442F3D3E4
:1004E0004FF0E020006920F001004FF0E0210861AA
:1004F00038BD0000000000202DE9F0410246002533
:100500000026002000230024002791F803C00CF0EF
:100510000F0591F803C00CF0100CBCF1000F03D0D4
:1005200091F802C04CEA050591F800C0BCF1000F3B
:1005300031D0146800202BE04FF0010C0CFA00F3CE
:10054000B1F800C00CEA03069E4220D183004FF0B0
:100550000F0C0CFA03F7BC4305FA03FC4CEA040445
:1005600091F803C0BCF1280F06D14FF0010C0CFA32
:1005700000FCC2F814C00AE091F803C0BCF1480FB7
:1005800005D14FF0010C0CFA00FCC2F810C0401C61
:100590000828D1D31460B1F800C0BCF1FF0F34DDDE
:1005A000546800202EE000F1080C4FF0010808FA12
:1005B0000CF3B1F800C00CEA03069E4221D183007F
:1005C0004FF00F0C0CFA03F7BC4305FA03FC4CEA9E
:1005D000040491F803C0BCF1280F05D100F1080C08
:1005E00008FA0CF8C2F8148091F803C0BCF1480F67
:1005F00007D100F1080C4FF0010808FA0CF8C2F816
:100600001080401C0828CED35460BDE8F08100BFA4
:10061000FEE700BFFEE770477047000029B1064AB9
:1006200052690243044B5A6104E0034A526982430F
:10063000014B5A61704700000010024029B1064A80
:10064000D2690243044BDA6104E0034AD26982436F
:10065000014BDA61704700000010024029B1064AE0
:1006600092690243044B9A6104E0034A926982430F
:10067000014B9A61704700000010024038B50546F2
:1006800000240CE008480188ADF8001080788DF84F
:1006900002002046009900F009F8601CC4B2AC4288
:1006A000F0DB00F009FA38BDF50A000813B5024680
:1006B000062A00DD1CBD002012E09DF80510C0F1E7
:1006C00007040123A340194009B1F82100E080216B
:1006D00002EB42031B4C04EBC3031954411CC8B288
:1006E0000728EADD082012E09DF80410C0F10F048D
:1006F0000123A340194009B1F82100E0802102EB59
:100700004203104C04EBC3031954411CC8B20F2818
:10071000EADD102012E09DF80610C0F11704012355
:10072000A340194009B1F82100E0802102EB420307
:10073000044C04EBC3031954411CC8B21728EADD6A
:1007400000BFB7E71400002021B1028842F4005234
:10075000028004E002884DF6FF731A400280704761
:1007600021B1028842F04002028004E002884FF684
:10077000BF731A40028070471AB183880B4383808D
:1007800002E083888B438380704710B50022028883
:1007900002F441520B884C8823438C882343CC8835
:1007A00023430C8923434C8923438C892343CC89DD
:1007B00023431A430280838B4FF2FF7423408383C9
:1007C0000B8A038210BD704710B500F001F810BD10
:1007D0000CB50020019000903348006840F4803050
:1007E0003149086000BF3048006800F400300090D4
:1007F0000198401C0190009818B90198B0F5A06FBD
:10080000F1D12948006800F4003010B101200090B7
:1008100001E0002000900098012843D1234800689F
:1008200040F01000214908600846006820F00300ED
:1008300008600846006840F0020008601A484068F6
:10084000194948600846406848600846406840F4D6
:10085000806048600846406820F47C104860084684
:10086000406840F4E81048600846006840F0807036
:10087000086000BF0C48006800F000700028F9D044
:100880000948406820F0030007494860084640686E
:1008900040F00200486000BF0348406800F00C00D0
:1008A0000828F9D10CBD00000010024000200240D1
:1008B00030B50146B1F1807F01D3012030BD21F078
:1008C0007F40401E4FF0E022506150170F22002859
:1008D00007DA13071D0E094B00F00F04241F1D55E6
:1008E00003E013071C0E064B1C5400BF00204FF002
:1008F000E0229061072010610020DFE718ED00E0A2
:1009000000E400E07047000010B51348006840F0B4
:1009100001001149086008464068104908400E4926
:100920004860084600680E4908400B4908600846C0
:10093000006820F4802008600846406820F4FE002B
:1009400048604FF41F008860FFF73EFF4FF00060E3
:100950000449086010BD0000001002400000FFF8CC
:10096000FFFFF6FE08ED00E000BFFEE700B591B026
:1009700001218803FFF762FE01210820FFF76EFEC8
:1009800001210846FFF74AFE4FF40040ADF8400051
:1009900018208DF8430003208DF8420010A92C4840
:1009A000FFF7AAFD4FF44040ADF82C004FF48270E1
:1009B000ADF82E000020ADF83000ADF83200012077
:1009C000ADF834004002ADF836001020ADF8380024
:1009D0000020ADF83A000720ADF83C000BA91D48F7
:1009E000FFF7D3FE01211B48FFF7BAFE002119488B
:1009F000FFF7AAFE012202211648FFF7BDFE1648A6
:100A0000FFF78EFC13480C30009014480190102022
:100A100002909020039000200490802005900020F8
:100A20000690079008904FF40050099000200A901B
:100A300069460948FFF71AFD0120FFF739FD062036
:100A4000FFF71CFE0120FFF733FD11B000BD0000D1
:100A5000000C014000380040580002401400002003
:100A6000FFF784FF02E0082000F001F8FBE7F8B58B
:100A70000546002600BF19E000240EE0200290FB8E
:100A8000F5F03044C7B23846FFF7DDFB0090E0B226
:100A90000099FFF70BFE601C84B2AC42EEDB00F065
:100AA0000BF81420FFF704FD701C86B240F2FF30F3
:100AB0008642E1DBF8BD000010B500210748FFF7D2
:100AC00023FC4FF40030FFF711FC90210348FFF79F
:100AD000EBFC01210148FFF717FC10BD5800024054
:100AE000FF000000FF000000FF00FFFFFF00DC7FB1
:100AF000D8007F6A00000000FFFFFF001C0B000809
:100B0000000000201400000028010008300B00083D
:100B100014000020F40600004401000800A24A046A
:100B2000000000000000000001020304060708099D
:04000005080000ED02
:00000001FF
